{
  "contractName": "PetShop",
  "abi": [
    {
      "inputs": [],
      "stateMutability": "nonpayable",
      "type": "constructor"
    },
    {
      "inputs": [],
      "name": "PetAlreadyAdopted",
      "type": "error"
    },
    {
      "inputs": [],
      "name": "PetDoesNotExist",
      "type": "error"
    },
    {
      "anonymous": false,
      "inputs": [
        {
          "indexed": false,
          "internalType": "uint256",
          "name": "petId",
          "type": "uint256"
        },
        {
          "indexed": false,
          "internalType": "address",
          "name": "owner",
          "type": "address"
        }
      ],
      "name": "PetAdopted",
      "type": "event"
    },
    {
      "inputs": [
        {
          "internalType": "uint256",
          "name": "",
          "type": "uint256"
        }
      ],
      "name": "adopters",
      "outputs": [
        {
          "internalType": "address",
          "name": "",
          "type": "address"
        }
      ],
      "stateMutability": "view",
      "type": "function",
      "constant": true
    },
    {
      "inputs": [
        {
          "internalType": "uint256",
          "name": "petId",
          "type": "uint256"
        }
      ],
      "name": "adopt",
      "outputs": [],
      "stateMutability": "nonpayable",
      "type": "function"
    },
    {
      "inputs": [],
      "name": "getAdopters",
      "outputs": [
        {
          "internalType": "address[16]",
          "name": "",
          "type": "address[16]"
        }
      ],
      "stateMutability": "view",
      "type": "function",
      "constant": true
    },
    {
      "inputs": [],
      "name": "reset",
      "outputs": [],
      "stateMutability": "nonpayable",
      "type": "function"
    }
  ],
  "bytecode": "0x608060405234801561001057600080fd5b50336000806101000a81548173ffffffffffffffffffffffffffffffffffffffff021916908373ffffffffffffffffffffffffffffffffffffffff1602179055506105c5806100606000396000f3fe608060405234801561001057600080fd5b506004361061004c5760003560e01c80633de4eb171461005157806343ae80d31461006f5780638588b2c51461009f578063d826f88f146100bb575b600080fd5b6100596100c5565b6040516100669190610496565b60405180910390f35b610089600480360381019061008491906103b2565b610146565b604051610096919061047b565b60405180910390f35b6100b960048036038101906100b491906103b2565b61017c565b005b6100c36102e5565b005b6100cd61034a565b600160108060200260405190810160405280929190826010801561013c576020028201915b8160009054906101000a900473ffffffffffffffffffffffffffffffffffffffff1673ffffffffffffffffffffffffffffffffffffffff16815260200190600101908083116100f2575b5050505050905090565b6001816010811061015657600080fd5b016000915054906101000a900473ffffffffffffffffffffffffffffffffffffffff1681565b80601081106101b7576040517fda43d7f400000000000000000000000000000000000000000000000000000000815260040160405180910390fd5b81600073ffffffffffffffffffffffffffffffffffffffff16600182601081106101e4576101e3610544565b5b0160009054906101000a900473ffffffffffffffffffffffffffffffffffffffff1673ffffffffffffffffffffffffffffffffffffffff1614610253576040517f9255594200000000000000000000000000000000000000000000000000000000815260040160405180910390fd5b336001846010811061026857610267610544565b5b0160006101000a81548173ffffffffffffffffffffffffffffffffffffffff021916908373ffffffffffffffffffffffffffffffffffffffff1602179055507faa2d40dd3b943f6c2f61c88fa64ea4eb2b19ea7399bdf0f1351ef2ce22ff9db083336040516102d89291906104b2565b60405180910390a1505050565b60008054906101000a900473ffffffffffffffffffffffffffffffffffffffff1673ffffffffffffffffffffffffffffffffffffffff163373ffffffffffffffffffffffffffffffffffffffff1614156103485760016000610347919061036d565b5b565b604051806102000160405280601090602082028036833780820191505090505090565b50806010019061037d9190610380565b50565b5b80821115610399576000816000905550600101610381565b5090565b6000813590506103ac81610578565b92915050565b6000602082840312156103c8576103c7610573565b5b60006103d68482850161039d565b91505092915050565b60006103eb83836103f7565b60208301905092915050565b61040081610508565b82525050565b61040f81610508565b82525050565b61041e816104e5565b61042881846104fd565b9250610433826104db565b8060005b8381101561046457815161044b87826103df565b9650610456836104f0565b925050600181019050610437565b505050505050565b6104758161053a565b82525050565b60006020820190506104906000830184610406565b92915050565b6000610200820190506104ac6000830184610415565b92915050565b60006040820190506104c7600083018561046c565b6104d46020830184610406565b9392505050565b6000819050919050565b600060109050919050565b6000602082019050919050565b600081905092915050565b60006105138261051a565b9050919050565b600073ffffffffffffffffffffffffffffffffffffffff82169050919050565b6000819050919050565b7f4e487b7100000000000000000000000000000000000000000000000000000000600052603260045260246000fd5b600080fd5b6105818161053a565b811461058c57600080fd5b5056fea2646970667358221220d30a63b4f75f5ee32667cd06e5b4373073b58a2b1bb39e836ecd3c66ee5ee89864736f6c63430008050033",
  "immutableReferences": {},
  "source": "// SPDX-License-Identifier: MIT\npragma solidity 0.8.5;\n\n/// @notice This contract allows anyone to adopt a pet. A pet can only be adopted once and there are only 16 different\n/// pets. The purpose of this simple contract is to provide a simple dapp exemple for which a web interface can be\n/// written.\ncontract PetShop {\n    /*\n     * State variables\n     */\n\n    /// @notice Contract owner. Has the ability to reset the state of the contract.\n    address private owner;\n\n    /// @notice Array of adopters. The index corresponds to the pet id.\n    address[16] public adopters;\n\n    /*\n     * Events\n     */\n\n    /// @notice A pet with the specified id has been adopted by its new owner.\n    event PetAdopted(uint256 petId, address owner);\n\n    /*\n     * Function modifiers\n     */\n\n    /// @notice To adopt a pet, its id must be valid. There are only 16 pets to be adopted.\n    error PetDoesNotExist();\n    modifier petExists(uint256 petId) {\n        if (petId >= 16) {\n            revert PetDoesNotExist();\n        }\n        _;\n    }\n\n    /// @notice An already adopted pet cannot be readopted.\n    error PetAlreadyAdopted();\n    modifier petNotAdopted(uint256 petId) {\n        if (adopters[petId] != address(0)) {\n            revert PetAlreadyAdopted();\n        }\n        _;\n    }\n\n    /*\n     * Functions\n     */\n\n    /// @notice Sets the sender as the contract owner.\n    constructor() {\n        owner = msg.sender;\n    }\n\n    /// @notice Allows the sender to adopt a pet.\n    function adopt(uint256 petId)\n        external\n        petExists(petId)\n        petNotAdopted(petId)\n    {\n        adopters[petId] = msg.sender;\n        emit PetAdopted(petId, msg.sender);\n    }\n\n    /// @notice Returns the whole list of adopters.\n    function getAdopters() external view returns (address[16] memory) {\n        return adopters;\n    }\n\n    /// @dev Clears the adopters array. Avoids the need to deploy a new contract instance.\n    function reset() external {\n        if (msg.sender == owner) {\n            delete adopters;\n        }\n    }\n}\n",
  "sourcePath": "/Users/user/Documents/dev/dlt/smart-contracts/6-pet-shop/contracts/PetShop.sol",
  "compiler": {
    "name": "solc",
    "version": "0.8.5+commit.a4f2e591.Emscripten.clang"
  },
  "schemaVersion": "3.4.1",
  "updatedAt": "2021-07-26T19:48:49.056Z",
  "networkType": "ethereum",
  "devdoc": {
    "kind": "dev",
    "methods": {
      "reset()": {
        "details": "Clears the adopters array. Avoids the need to deploy a new contract instance."
      }
    },
    "version": 1
  },
  "userdoc": {
    "errors": {
      "PetAlreadyAdopted()": [
        {
          "notice": "An already adopted pet cannot be readopted."
        }
      ],
      "PetDoesNotExist()": [
        {
          "notice": "To adopt a pet, its id must be valid. There are only 16 pets to be adopted."
        }
      ]
    },
    "events": {
      "PetAdopted(uint256,address)": {
        "notice": "A pet with the specified id has been adopted by its new owner."
      }
    },
    "kind": "user",
    "methods": {
      "adopt(uint256)": {
        "notice": "Allows the sender to adopt a pet."
      },
      "adopters(uint256)": {
        "notice": "Array of adopters. The index corresponds to the pet id."
      },
      "constructor": {
        "notice": "Sets the sender as the contract owner."
      },
      "getAdopters()": {
        "notice": "Returns the whole list of adopters."
      }
    },
    "notice": "This contract allows anyone to adopt a pet. A pet can only be adopted once and there are only 16 different pets. The purpose of this simple contract is to provide a simple dapp exemple for which a web interface can be written.",
    "version": 1
  }
}